:02003C00F026AC
:02003E008F260B
:020040006A272D
:020042008C260A
:02004400CB26C9
:0200460007278A
:020048006C2624
:02004A00252768
:02004C00D126BB
:02004E00B626D4
:020050000E2779
:02005200BB26CB
:020054001E2765
:02005600F02692
:0200580040273F
:02005A00E1269D
:02005C008526F7
:02005E007E26FC
:020060006B260D
:02006200052770
:0200640069270A
:0200660047272A
:02006800582717
:02006A00182755
:02006C005C2610
:02006E00A426C6
:02007000C226A6
:02007200CD2699
:02007400E32681
:0200760033272E
:0200780041271E
:02007A00272736
:02007C00F52667
:02007E00E92671
:02008000EF2669
:020082006926ED
:0200840045270E
:02008600D3267F
:0200880005274A
:02008A00C52689
:02008C00F92653
:02008E00D82672
:02009000E62662
:020092000D2738
:0200940029271A
:0200960004273D
:020098000F2730
:02009A0012272B
:02009C008A26B2
:02009E00CE266C
:0200A000042733
:0200A200B62680
:0200A4003D27F6
:0200A600E7264B
:0200A800CE2662
:0200AA00082725
:0200AC002F27FC
:0200AE00D42656
:0200B000972790
:0200B200B02676
:0200B400B7266D
:0200B600CB2657
:0200B800DF2641
:0200BA0092268C
:0200BC006127BA
:0200BE002D27EC
:0200C0003727E0
:0200C2004E27C7
:0200C400ED2627
:0200C6008D2685
:0200C800A92667
:0200CA00B62658
:0200CC00E52627
:0200CE004427C5
:0200D000772790
:0200D200A8265E
:0200D4003027D3
:0200D6009D2665
:0200D8000027FF
:0200DA00D2262C
:0200DC005827A3
:0200DE000427F5
:0200E000932665
:0200E20056279F
:0200E4008D2667
:0200E600E6260C
:0200E8002A27C5
:0200EA00A82646
:0200EC005C278F
:0200EE002727C2
:0200F0003727B0
:0200F200E02606
:0200F400EA26FA
:0200F600B5262D
:0200F8000927D6
:0200FA003B27A2
:0200FC00662775
:0200FE000327D6
:0201000079265E
:02010200E326F2
:02010400F726DC
:020106001327BD
:020108003E2790
:02010A003A2792
:02010C00EA26E1
:02010E008C263D
:020110003E2788
:020112000427C0
:020114000427BE
:020116006B2755
:020118000827B6
:02011A00F126CC
:02011C00E326D8
:02011E00FE26BB
:020120009B261C
:0201220027278D
:020124004D2765
:020126000827A8
:02012800452769
:02012A000E279E
:02012C00B326F8
:02012E00F826B1
:020130000A279C
:020132004F2755
:020134001B2787
:020136005D2743
:0201380001279D
:02013A008B2612
:02013C00F126AA
:02013E00C926D0
:02014000502746
:020142004D2747
:020144007B2717
:0201460053273D
:02014800C726C8
:02014A00B826D5
:02014C009F26EC
:02014E00D326B6
:020150005E2728
:020152000F2775
:020154009427EE
:02015600302750
:02015800DA26A5
:02015A00152767
:02015C00F92682
:02015E00AF26CA
:02016000402736
:02016200A526D0
:020164007E27F4
:02016600372739
:02016800662708
:02016A002B2741
:02016C000E275C
:02016E00082760
:020170008226E5
:02017200642700
:02017400A726BC
:02017600472719
:0201780021273D
:02017A006327F9
:02017C00F42667
:02017E006427F4
:02018000FC265B
:02018200C8268D
:02018400412711
:02018600DB2676
:0201880022272C
:02018A0021272B
:02018C0020272A
:02018E00DF266A
:02019000F8264F
:02019200D42671
:020194005727EB
:020196005627EA
:020198003F27FF
:02019A005227EA
:02019C00A22699
:02019E00E92650
:0201A000FA263D
:0201A200C42671
:0201A4007F27B3
:0201A600202710
:0201A8004927E5
:0201AA004A27E2
:0201AC007627B4
:0201AE00EC263D
:0201B000EF2638
:0201B200A7267E
:0201B400AE2675
:0201B600F82629
:0201B8003227EC
:0201BA00E82734
:0201BC004927D1
:0201BE005C27BC
:0201C000E9262E
:0201C200B9265C
:0201C4006B26A8
:0201C6002127EF
:0201C8005F27AF
:0201CA002027EC
:0201CC00A42766
:0201CE001127F7
:0201D0001327F3
:0201D200B6264F
:0201D400002702
:0201D6000827F8
:0201D8005027AE
:0201DA001D27DF
:0201DC001D27DD
:0201DE007E277A
:0201E000CE2629
:0201E2001527DF
:0201E40077277B
:0201E600EF2602
:0201E8001327DB
:0201EA00FE26EF
:0201EC00FC26EF
:0201EE003427B4
:0201F000FF26E8
:0201F200B9272B
:0201F4001127D1
:0201F6000327DD
:0201F800EE26F1
:0201FA000527D7
:0201FC00952646
:0201FE003C279C
:02020000632772
:0202020034279F
:020204002A27A7
:0202060070275F
:02020800D526F9
:02020A00EF26DD
:02020C000C27BD
:02020E00AA261E
:0202100097272E
:02021200ED26D7
:020214001E27A3
:020216007A2745
:020218000927B4
:02021A000C27AF
:02021C00342785
:02021E008B272C
:02022000A22614
:020222001C2797
:02022400E426CE
:020226002A2785
:02022800282785
:02022A00132798
:02022C007B272E
:02022E001D278A
:020230001D2788
:02023200FE26A6
:020234002A2777
:02023600D426CC
:02023800E026BE
:02023A00362765
:02023C005C273D
:02023E00ED26AB
:020240003F2756
:0202420025276E
:02024400182779
:020246000B2784
:020248006E271F
:02024A009126FB
:02024C00422747
:02024E00AD26DB
:020250005B272A
:0202520047273C
:0202540022275F
:02025600F2268E
:020258000F276E
:02025A001A2761
:02025C00202759
:02025E0068270F
:02026000D626A0
:0202620038273B
:020264001A2757
:02026600D92697
:020268005C2711
:02026A00272744
:02026C009626D4
:02026E00A127C6
:02027000E12685
:0202720054270F
:02027400EA2678
:02027600BE26A2
:020278001A2743
:02027A00182743
:02027C007827E1
:02027E0039271E
:020280003A271B
:02028200D42680
:02028400AE26A4
:0202860034271B
:02028800392714
:02028A007027DB
:02028C000F273A
:02028E00012746
:020290008926BD
:02029200F8264C
:0202940025271C
:020296007A27C5
:02029800D3276A
:02029A00182723
:02029C00362703
:02029E009326A5
:0202A000CD2669
:0202A2001E2715
:0202A4005E27D3
:0202A600262709
:0202A8007F27AE
:0202AA00FE262E
:0202AC00EA2640
:0202AE005727D0
:0202B0004A27DB
:0202B20016270D
:0202B400082719
:0202B6003427EB
:0202B8009E2680
:0202BA006727B4
:0202BC003727E2
:0202BE003827DF
:0202C0006627AF
:0202C200D02644
:0202C4003D27D4
:0202C600CC2644
:0202C800782795
:0202CA00F72615
:0202CC003627D3
:0202CE00CB263D
:0202D0001427F1
:0202D2003B27C8
:0202D40082277F
:0202D60063279C
:0202D8000E27EF
:0202DA002227D9
:0202DC00782682
:0202DE000D27EA
:0202E0000527F0
:0202E200622791
:0202E4008E2763
:0202E60065278A
:0202E8001B27D2
:0202EA001C27CF
:0202EC00A82642
:0202EE003327B4
:0202F000EE26F8
:0202F20077276C
:0202F4002827B9
:0202F6001D27C2
:0202F8001C27C1
:0202FA003B27A0
:0202FC001C27BD
:0202FE001427C3
:020300002F27A5
:02030200D726FC
:020304009B2735
:020306000A27C4
:02030800892743
:02030A001A27B0
:02030C00F926D0
:02030E00BD260A
:020310000327C1
:020312002227A0
:020314001527AB
:02031600882736
:02031800232799
:02031A003B277F
:02031C000A27AE
:02031E00EF26C8
:020320000927AB
:0203220044276E
:020324002A2786
:02032600F926B6
:02032800572755
:02032A00ED26BE
:02032C00F926B0
:02032E00512755
:02033000CB26DA
:0203320007279B
:020334003E2762
:0203360013278B
:020338003C2760
:02033A00952705
:02033C00E926B0
:02033E00222774
:02034000E226B3
:02034200BB26D8
:02034400682728
:02034600A926E6
:02034800E127AB
:02034A00232767
:02034C00432745
:02034E00D926AE
:0203500006277E
:02035200AB26D8
:0203540014276C
:02035600BA27C4
:02035800182764
:02035A008027FA
:02035C00D326A6
:02035E00D426A3
:02036000D8269D
:020362003B2737
:0203640051271F
:0203660020274E
:02036800582714
:02036A00E1268A
:02036C00EF267A
:02036E007027F6
:0203700009275B
:020372002A2738
:02037400E12680
:020376006927F5
:02037800B126AC
:02037A007427E6
:02037C00352723
:02037E00312725
:020380000A274A
:02038200F5265E
:02038400FB2656
:02038600C2268D
:020388006E27DE
:02038A003D270D
:02038C009427B4
:02038E00DE2669
:020390005327F1
:020392009D26A6
:02039400A82699
:020396008227BC
:020398000B2731
:02039A00BF277B
:02039C005027E8
:02039E00132723
:0203A000F12644
:0203A200F8263B
:0203A400D82659
:0203A6008627A8
:0203A800F82635
:0203AA008627A4
:0203AC00CF265A
:0203AE004A27DC
:0203B0005127D3
:0203B20005271D
:0203B4002527FB
:0203B600DA2645
:0203B8007327A9
:0203BA00DF263C
:0203BC003C27DC
:0203BE00862790
:0203C000E32632
:0203C200E12632
:0203C4004F27C1
:0203C600BB2654
:0203C8003127DB
:0203CA005527B5
:0203CC004427C4
:0203CE00B42752
:0203D0001427F0
:0203D2001127F1
:0203D400D82629
:0203D600DB2624
:0203D8003627C6
:0203DA001D27DD
:0203DC009A275E
:0203DE001827DE
:0203E0001C27D8
:0203E200EC2607
:0203E400E12610
:0203E600892765
:0203E800EF26FE
:0203EA009B274F
:0203EC003A27AE
:0203EE001D27C9
:0203F000A9263C
:0203F2003F27A3
:0203F400D12610
:0203F6005B2783
:0203F8002027BC
:0203FA004B278F
:0203FC002F27A9
:0203FE00F626E1
:020400000D27C6
:02040200EF26E3
:020404006B2764
:02040600A72627
:02040800AD271E
:02040A00EC26DE
:02040C00EA26DE
:02040E002F2796
:020410004D2776
:020412000C27B5
:02041400FD26C3
:02041600892734
:02041800C326F9
:02041A001D279C
:02041C00252792
:02041E0048276D
:020420004B2768
:02042200FC26B6
:0204240051275E
:02042600762638
:02042800562755
:02042A00A0260A
:02042C00912716
:02042E0089271C
:0204300028277B
:020432009E2703
:0204340081261F
:020436000F278E
:02043800BD26DF
:02043A00CD26CD
:02043C00BB27DC
:02043E00602735
:0204400086270D
:02044200EA26A8
:02044400EF26A1
:02044600A326EB
:0204480001278A
:02044A009027F9
:02044C00462741
:02044E008B27FA
:02045000002783
:0204520055272C
:02045400E82698
:020456001A2763
:02045800CA26B2
:02045A00242755
:02045C0008276F
:02045E00532722
:020460004F2724
:020462008C27E5
:02046400B226BE
:020466000F275E
:02046800272744
:02046A009126D9
:02046C00272740
:02046E00642701
:0204700045271E
:02047200402721
:0204740053270C
:020476004B2712
:02047800EA2672
:02047A00E72673
:02047C00072750
:02047E00D22684
:020480006E27E5
:020482002C2725
:02048400AC27A3
:02048600342719
:02048800F52657
:02048A00ED265D
:02048C00E02668
:02048E003E2707
:02049000E6265E
:0204920033270E
:020494009227AD
:02049600292714
:020498007227C9
:02049A004727F2
:02049C00B22686
:02049E00BA267C
:0204A000A22692
:0204A2004927E8
:0204A4006827C7
:0204A6007527B8
:0204A8003927F2
:0204AA007727B2
:0204AC00C72661
:0204AE00BE2668
:0204B0007327B0
:0204B200CC2656
:0204B4004727D8
:0204B6006327BA
:0204B8000F270C
:0204BA005727C2
:0204BC00072710
:0204BE00DA263C
:0204C0001C27F7
:0204C2001F27F2
:0204C4002D27E2
:0204C6003227DB
:0204C800AB2760
:0204CA001C27ED
:0204CC001027F7
:0204CE00C52641
:0204D000C32641
:0204D200C7263B
:0204D4000527FA
:0204D600B1274C
:0204D800792782
:0204DA006C278D
:0204DC00EF2609
:0204DE00D7261F
:0204E0007C2678
:0204E2002A27C7
:0204E4001527DA
:0204E600662787
:0204E800A82743
:0204EA000B27DE
:0204EC00842763
:0204EE00942652
:0204F0003727AC
:0204F200BB2627
:0204F4001C27C3
:0204F60040279D
:0204F8001427C7
:0204FA00AD272C
:0204FC00AF2629
:0204FE0078275D
:020500001127C1
:020502000C27C4
:02050400F226DD
:020506002927A3
:02050800B22619
:02050A004F2779
:02050C001927AD
:02050E009B2729
:02051000E926DA
:02051200672759
:02051400B4260B
:020516003F277D
:020518001227A8
:02051A00272791
:02051C00532763
:02051E00E826CD
:02052000222790
:0205220053275D
:020524000127AD
:02052600A62706
:02052800722738
:02052A00FD26AC
:02052C00322774
:02052E00DD26C8
:02053000F326B0
:0205320051274F
:020534007A2724
:02053600632739
:02053800252775
:02053A00BF26DA
:02053C00CE26C9
:02053E000E2786
:02054000012791
:0205420084270C
:02054400892705
:0205460072271A
:02054800342756
:02054A00582730
:02054C009F26E8
:02054E00D826AD
:02055000EF2694
:0205520023275D
:02055400A027DE
:020556005A2722
:02055800512729
:02055A00E62693
:02055C001C275A
:02055E000C2768
:020560006F2703
:02056200102760
:020564006A2704
:02056600CA26A3
:020568009127D9
:02056A00C126A8
:02056C008027E6
:02056E00312733
:0205700014274E
:02057200F92668
:02057400452719
:02057600B426A9
:020578007227E8
:02057A00F52664
:02057C006E27E8
:02057E0036271E
:02058000502702
:02058200EF2662
:02058400452709
:02058600D62677
:02058800D82673
:02058A004B27FD
:02058C006127E5
:02058E00A227A2
:020590006A27D8
:020592004427FC
:02059400CF2670
:02059600CE266F
:0205980000273A
:02059A005327E5
:02059C006127D5
:02059E003B27F9
:0205A000312701
:0205A200C82669
:0205A400EC2643
:0205A600242708
:0205A8005427D6
:0205AA007527B3
:0205AC007F27A7
:0205AE0009271B
:0205B00014270E
:0205B20084269D
:0205B400F3262C
:0205B6000C2710
:0205B8003927E1
:0205BA006D27AB
:0205BC005C27BA
:0205BE006D27A7
:0205C000A12672
:0205C2005D27B3
:0205C400AF2660
:0205C600092703
:0205C800ED261E
:0205CA006E279A
:0205CC004827BE
:0205CE003527CF
:0205D0008A2778
:0205D200B5264C
:0205D4005027AE
:0205D600CD2630
:0205D8000B27EF
:0205DA005B279D
:0205DC000D27E9
:0205DE005427A0
:0205E000F22601
:0205E2006D2783
:0205E400D1261E
:0205E6001327D9
:0205E8006E277C
:0205EA00EC26FD
:0205EC00E826FF
:0205EE00642780
:0205F000FE26E5
:0205F200F626EB
:0205F400872757
:0205F600A92634
:0205F800572783
:0205FA00AA262F
:0205FC00522784
:0205FE00842750
:0206000064276D
:02060200492786
:02060400F426DA
:02060600AD261F
:02060800C82602
:02060A002327A4
:02060C00B32712
:02060E00912732
:02061000E726DB
:020612001027AF
:02061400DE26E0
:02061600A92613
:020618005F275A
:02061A004E2769
:02061C001B279A
:02061E00312782
:02062000982719
:02062200E926C7
:020624000D27A0
:02062600E326C9
:02062800EE26BC
:02062A000027A7
:02062C002A277B
:02062E005C2747
:020630002F2772
:020632005B2744
:02063400192784
:0206360071272A
:02063800F726A3
:02063A00042793
:02063C00A126F5
:02063E003B2758
:02064000282769
:020642006D2722
:020644007F270E
:020646001E276D
:02064800182771
:02064A00A726E1
:02064C000A277B
:02064E00512732
:02065000512730
:0206520014276B
:02065400AB27D2
:02065600BA26C2
:02065800182761
:02065A003E2739
:02065C00E42692
:02065E00F42680
:020660003A2737
:020662003D2732
:02066400182755
:02066600552716
:02066800D92691
:02066A006B27FC
:02066C00CC269A
:02066E0046271D
:0206700022273F
:02067200FB2665
:020674006827F5
:02067600F42668
:020678003B271E
:02067A00112746
:02067C00152740
:02067E002C2727
:020680002E2723
:020682005527FA
:0206840023272A
:020686006526E7
:020688006E27DB
:02068A00AF2699
:02068C004727FE
:02068E007327D0
:020690007227CF
:0206920020271F
:02069400BD2681
:020696004127FA
:020698009526A5
:02069A008E27A9
:02069C00E12655
:02069E007427BF
:0206A00025270C
:0206A2001F2710
:0206A400D4265A
:0206A6005427D7
:0206A800F82632
:0206AA000D271A
:0206AC002627FF
:0206AE003927EA
:0206B0001F2702
:0206B2003427EB
:0206B4004E27CF
:0206B6002E27ED
:0206B8004527D4
:0206BA00A82670
:0206BC005B27BA
:0206BE00C5264F
:0206C00075279C
:0206C2007C2793
:0206C400E72627
:0206C6001827F3
:0206C800CB263F
:0206CA00DE262A
:0206CC001B27EA
:0206CE0099276A
:0206D0005727AA
:0206D2000A27F5
:0206D4006E278F
:0206D600EC2610
:0206D8001327E6
:0206DA001B27DC
:0206DC001327E2
:0206DE00F526FF
:0206E000F626FC
:0206E2002E27C1
:0206E4005E278F
:0206E6001127DA
:0206E800722777
:0206EA0059278E
:0206EC000E27D7
:0206EE001827CB
:0206F0002C27B5
:0206F20095264B
:0206F400442799
:0206F600DA2602
:0206F8001527C4
:0206FA009A273D
:0206FC00422793
:0206FE00702763
:020700001227BE
:02070200D126FE
:02070400EA26E3
:02070600E226E9
:02070800402788
:02070A00942732
:02070C00DD26E8
:02070E00A7271B
:02071000CA26F7
:02071200452779
:02071400572765
:02071600DE26DD
:02071800512767
:02071A00ED26CA
:02071C007F2735
:02071E00F326C0
:020720004B2765
:02072200C726E8
:02072400FF26AE
:020726001A2790
:020728009D270B
:02072A00A02706
:02072C00322772
:02072E0028277A
:020730009C2605
:02073200C026DF
:02073400CF26CE
:02073600492751
:02073800A827F0
:02073A00FF2698
:02073C0079271B
:02073E00F126A2
:02074000B726DA
:0207420063272B
:02074400B226DB
:02074600A427E6
:020748001C276C
:02074A004D2739
:02074C00FC2689
:02074E00492739
:020750001A2766
:02075200052779
:0207540012276A
:020756000D276D
:020758002C274C
:02075A0008276E
:02075C000B2769
:02075E009027E2
:0207600001276F
:0207620060270E
:020764003E272E
:02076600B826B3
:02076800E52684
:02076A00F02677
:02076C00232741
:02076E00B827AA
:0207700051270F
:020772001B2743
:02077400382724
:020776008A26D1
:02077800EF266A
:02077A00222734
:02077C007927DB
:02077E00DB2678
:02078000AE27A2
:0207820010273E
:02078400F92654
:02078600312719
:02078800C32686
:02078A002B271B
:02078C00FD2648
:02078E007027D2
:02079000A4279C
:0207920031270D
:02079400C62677
:02079600012739
:02079800D02669
:02079A0027270F
:02079C006527CF
:02079E004727EB
:0207A000102720
:0207A200C62669
:0207A4004227EA
:0207A6008227A8
:0207A8001D270B
:0207AA007827AE
:0207AC000C2718
:0207AE000D2715
:0207B000AE2673
:0207B2009C2782
:0207B400CF264E
:0207B6005827C2
:0207B800032715
:0207BA006327B3
:0207BC005627BE
:0207BE00DB2638
:0207C0006127AF
:0207C2004927C5
:0207C400A92664
:0207C6004627C4
:0207C8006327A5
:0207CA00B12656
:0207CC008E2776
:0207CE00D8262B
:0207D000872779
:0207D2004D27B1
:0207D400CF262E
:0207D600632797
:0207D800C62633
:0207DA001E27D8
:0207DC004127B3
:0207DE005A2798
:0207E0002F27C1
:0207E2001527D9
:0207E4003227BA
:0207E600D62615
:0207E8004127A7
:0207EA00562790
:0207EC00DC2609
:0207EE0097274B
:0207F000D6260B
:0207F200652779
:0207F400CB2612
:0207F600FC26DF
:0207F80049278F
:0207FA005F2777
:0207FC00602774
:0207FE001E27B4
:020800003C2793
:02080200FC26D2
:02080400DB26F1
:020806002527A4
:02080800FF26C9
:02080A00322793
:02080C003A2789
:02080E00412780
:02081000CE27F1
:02081200EF26CF
:02081400E026DC
:02081600722648
:020818003F2778
:02081A008C262A
:02081C000228B0
:02081E00A4270D
:02082000462769
:02082200D926D5
:02082400E226CA
:02082600BC26EE
:02082800E826C0
:02082A00822723
:02082C00622741
:02082E0064273D
:02083000382767
:02083200DD26C1
:020834001D277E
:020836009B26FF
:02083800302767
:02083A00FA269C
:02083C008D2706
:02083E00FD2695
:020840009727F8
:02084200B926D5
:020844004D273E
:020846009A26F0
:02084800652722
:02084A002E2757
:02084C0004277F
:02084E0025275C
:02085000E82698
:0208520030274D
:02085400762705
:020856005C271D
:0208580039273E
:02085A00BA26BC
:02085C00C326B1
:02085E00EA2688
:020860008227ED
:02086200AA27C3
:02086400372734
:020866004D271C
:020868008826E0
:02086A00C126A5
:02086C002F2734
:02086E00F02672
:02087000CB2794
:020872006C27F1
:02087400E82674
:020876005D27FC
:02087800C72691
:02087A00F7265F
:02087C004D2706
:02087E0033271E
:020880003E2711
:020882001F272E
:0208840041270A
:02088600DD266D
:02088800302717
:02088A007627CF
:02088C009A26AA
:02088E008B27B6
:02089000D2266E
:020892000B2732
:020894007C27BF
:020896001D271C
:02089800362701
:02089A003C27F9
:02089C00F6263E
:02089E00E12651
:0208A0007027BF
:0208A20021270C
:0208A4005727D4
:0208A6003D27EC
:0208A800DF2649
:0208AA00002725
:0208AC0096268E
:0208AE006827B9
:0208B0002727F8
:0208B2004827D5
:0208B4007727A4
:0208B6005B27BE
:0208B8000F2708
:0208BA004127D4
:0208BC00FB2619
:0208BE004327CE
:0208C000E72629
:0208C20003270A
:0208C400822789
:0208C600A72663
:0208C8004127C6
:0208CA003A27CB
:0208CC002A27D9
:0208CE00C6273B
:0208D0005127AE
:0208D2002427D9
:0208D400F1260B
:0208D6005726A3
:0208D8000527F2
:0208DA00DA261C
:0208DC00A7274C
:0208DE00F727FA
:0208E0006A2785
:0208E2001827D5
:0208E4000B27E0
:0208E6005D268D
:0208E800FA26EE
:0208EA0078276D
:0208EC003127B2
:0208EE003A27A7
:0208F0004F2790
:0208F2000D27D0
:0208F400A92633
:0208F600AC272D
:0208F8001B27BC
:0208FA00DD26F9
:0208FC003A2799
:0208FE001327BE
:02090000462788
:02090200452787
:020904005A2770
:02090600F026D9
:02090800AE2619
:02090A00F426D1
:02090C0048277A
:02090E009A2726
:02091000962728
:020912000327B9
:02091400DB26E0
:02091600812638
:02091800D126E6
:02091A00A9270B
:02091C0098271A
:02091E0096271A
:02092000562758
:02092200892624
:02092400FF26AC
:020926007C262D
:02092800812725
:02092A00902714
:02092C003D2765
:02092E0092270E
:02093000A926F6
:02093200F326AA
:02093400AF26EC
:02093600462752
:02093800552741
:02093A00C027D4
:02093C00822710
:02093E0013277D
:02094000DD26B2
:020942008D2600
:02094400012789
:020946000A277E
:020948007F2707
:02094A00832701
:02094C0044273E
:02094E00EE2693
:02095000E0269F
:020952006D270F
:02095400FF267C
:020956008027F8
:0209580069270D
:02095A00412733
:02095C00092769
:02095E00B826B9
:020960003B2733
:02096200F52678
:02096400272743
:020966008B27DD
:0209680048271E
:02096A00032761
:02096C00512711
:02096E00DF2682
:020970005D2701
:02097200E82675
:02097400562704
:020976006027F8
:02097800E42673
:02097A002C2728
:02097C00F9265A
:02097E00FE2653
:02098000352719
:020982009C27B0
:020984006827E2
:020986007227D6
:020988009826AF
:02098A001F2725
:02098C00A126A2
:02098E004527FB
:020990009C27A2
:0209920031270B
:020994007C27BE
:02099600F22647
:020998003B27FB
:02099A00F6263F
:02099C00F02643
:02099E005C27D4
:0209A000B4267B
:0209A2008F279D
:0209A4005B27CF
:0209A6004827E0
:0209A8002727FF
:0209AA0096268F
:0209AC001A2708
:0209AE00BA2667
:0209B000AF276F
:0209B2006A27B2
:0209B4008B278F
:0209B600FA261F
:0209B8003727DF
:0209BA004E26C7
:0209BC00F22621
:0209BE002727E9
:0209C0004C27C2
:0209C20081278B
:0209C4004327C7
:0209C6006327A5
:0209C800C52642
:0209CA00A02665
:0209CC004527BD
:0209CE002227DE
:0209D0000527F9
:0209D2007A2782
:0209D400DA2621
:0209D600FD26FC
:0209D800F62601
:0209DA004627AE
:0209DC00FF26F4
:0209DE006C2784
:0209E0002727C7
:0209E200FC26F1
:0209E4001E27CC
:0209E600DD260C
:0209E8004D2799
:0209EA00F026F5
:0209EC0064277E
:0209EE004027A0
:0209F0005D2781
:0209F200AE262F
:0209F4001727C3
:0209F600A02639
:0209F8004A278C
:0209FA0058277C
:0209FC004F2783
:0209FE0065276B
:020A0000EF26DF
:020A02008D263F
:020A04000527C4
:020A06002227A5
:020A080068275D
:020A0A00322791
:020A0C005E2763
:020A0E00B3260D
:020A100041277C
:020A12001927A2
:020A14000327B6
:020A16002F2788
:020A1800E926CD
:020A1A00D626DE
:020A1C00592758
:020A1E00582757
:020A2000642749
:020A2200F026BC
:020A24001B278E
:020A2600B226F6
:020A2800512754
:020A2A00DF26C5
:020A2C0043275E
:020A2E0045275A
:020A3000D026CE
:020A3200C327D8
:020A3400D126C9
:020A3600332764
:020A380027276E
:020A3A00C426D0
:020A3C0027276A
:020A3E004A2745
:020A4000562737
:020A4200562735
:020A4400E126A9
:020A4600552732
:020A4800E226A4
:020A4A00FE2686
:020A4C003D2744
:020A4E008727F8
:020A50002B2752
:020A5200192762
:020A5400052774
:020A5600F9267F
:020A58009226E4
:020A5A0024274F
:020A5C005E2713
:020A5E007427FB
:020A6000552718
:020A62008C27DF
:020A6400F32677
:020A66009226D6
:020A6800E22684
:020A6A00032760
:020A6C00382729
:020A6E00AE27B1
:020A70008327DA
:020A7200442717
:020A7400092750
:020A76005E26FA
:020A78001F2736
:020A7A00EF2665
:020A7C004B2706
:020A7E009827B7
:020A80002E271F
:020A820000274B
:020A8400DE266C
:020A8600452702
:020A88000B273A
:020A8A008127C2
:020A8C00F5264D
:020A8E005F27E0
:020A9000CC2672
:020A92008827B3
:020A9400D62664
:020A9600A8278F
:020A9800B32683
:020A9A003627FD
:020A9C00DD2655
:020A9E00B82678
:020AA000962797
:020AA200122719
:020AA4006D27BC
:020AA6006D27BA
:020AA800F8262E
:020AAA0098268C
:020AAC002427FD
:020AAE001C2703
:020AB0007727A6
:020AB2002227F9
:020AB4008D278C
:020AB600B9265F
:020AB800D7263F
:020ABA002C27E7
:020ABC002D27E4
:020ABE002027EF
:020AC000772796
:020AC200A2266A
:020AC4005027B9
:020AC600E02628
:020AC800B42751
:020ACA003C27C7
:020ACC005527AC
:020ACE00D5262B
:020AD000BB2643
:020AD2003A27C1
:020AD400C82632
:020AD600E52712
:020AD800DB261B
:020ADA002427CF
:020ADC002327CE
:020ADE002A27C5
:020AE0006D2780
:020AE2000D27DE
:020AE4000127E8
:020AE600EE26FA
:020AE800CA261C
:020AEA002127C2
:020AEC0074276D
:020AEE00982747
:020AF0003B27A2
:020AF2001827C3
:020AF400F326E7
:020AF6009C263C
:020AF80049278C
:020AFA00FB26D9
:020AFC00DA27F7
:020AFE00EF26E1
:020B00001327B9
:020B02002027AA
:020B04000C27BC
:020B0600522774
:020B08000827BC
:020B0A0047277B
:020B0C00F026D1
:020B0E00482776
:020B1000562766
:020B12000A27B0
:020B1400EA26CF
:020B1600EA26CD
:020B18003B2779
:020B1A00512761
:020B1C006E2742
:020B1E00462768
:020B20000627A6
:020B220070263B
:020B2400772731
:020B2600442762
:020B28002C2778
:020B2A00892719
:020B2C0002279E
:020B2E00DB26C4
:020B3000142788
:020B3200ED26AE
:020B3400902708
:020B3600012795
:020B38003D2757
:020B3A00392759
:020B3C0003278D
:020B3E001E2770
:020B4000B226DB
:020B42009627F4
:020B4400B626D3
:020B46009727EF
:020B4800742710
:020B4A00312751
:020B4C00B626CB
:020B4E001E2760
:020B5000AF26CE
:020B52002B274F
:020B5400712707
:020B5600242752
:020B58009A27DA
:020B5A00F9267A
:020B5C006D2703
:020B5E009426DB
:020B6000362736
:020B62008126EA
:020B6400532715
:020B66007327F3
:020B6800232741
:020B6A009E27C4
:020B6C00082758
:020B6E00F62669
:020B70001D273F
:020B7200EE266D
:020B7400122746
:020B7600F02667
:020B7800212733
:020B7A009127C1
:020B7C0002274E
:020B7E00462708
:020B80001F272D
:020B8200DD266E
:020B8400F92650
:020B8600A127A5
:020B88000D2737
:020B8A00212721
:020B8C00072739
:020B8E00BF2680
:020B900031270B
:020B9200C92672
:020B9400C82770
:020B960019271D
:020B9800142720
:020B9A006727CB
:020B9C00CB2666
:020B9E003927F5
:020BA0003727F5
:020BA2006A27C0
:020BA400A32686
:020BA6002A27FC
:020BA800E42641
:020BAA00EF2634
:020BAC0096278A
:020BAE001F27FF
:020BB0006D27AF
:020BB200CC264F
:020BB400122706
:020BB6003F27D7
:020BB8003627DE
:020BBA00912781
:020BBC001627FA
:020BBE003227DC
:020BC000E0262D
:020BC200E52626
:020BC4000D27FB
:020BC6002A27DC
:020BC8006027A4
:020BCA00FA2609
:020BCC0086277A
:020BCE002B27D3
:020BD0005327A9
:020BD2004F27AB
:020BD4001D27DB
:020BD600B42643
:020BD800C22633
:020BDA00E8260B
:020BDC006A2786
:020BDE005F278F
:020BE000EB2701
:020BE20050279A
:020BE4008B265E
:020BE6004627A0
:020BE8009C2649
:020BEA00E32600
:020BEC00772769
:020BEE00992745
:020BF0000A27D2
:020BF2005D277D
:020BF400CB260E
:020BF6001327C3
:020BF8000C27C8
:020BFA0043278F
:020BFC00D927F7
:020BFE00D726F8
:020C00000D27BE
:020C02001C27AD
:020C0400F026D8
:020C060027279E
:020C08006E2755
:020C0A00E426DE
:020C0C001027AF
:020C0E00572766
:020C1000262795
:020C1200892730
:020C1400EC26CC
:020C16003E2777
:020C1800E626CE
:020C1A000327AE
:020C1C0041276E
:020C1E00442769
:020C20003A2771
:020C2200F626B4
:020C240039276E
:020C2600E326C3
:020C28001C2787
:020C2A0044275D
:020C2C0080271F
:020C2E0032276B
:020C3000232778
:020C32003A275F
:020C34007F2619
:020C360016277F
:020C3800F026A4
:020C3A002C2765
:020C3C0081270E
:020C3E009527F8
:020C4000162775
:020C42000A277F
:020C4400072780
:020C46007D2609
:020C480058272B
:020C4A0025275C
:020C4C00292756
:020C4E00452738
:020C5000CF26AD
:020C52006F270A
:020C5400A226D6
:020C5600C227B3
:020C58009526DF
:020C5A008327EE
:020C5C000D2762
:020C5E00A526C9
:020C6000B527B6
:020C6200DD268D
:020C6400442723
:020C66000D2758
:020C680017274C
:020C6A00002761
:020C6C00D72689
:020C6E007427E9
:020C7000152746
:020C72003C271D
:020C74002D272A
:020C7600242731
:020C7800E22672
:020C7A00E22670
:020C7C0041270E
:020C7E00252728
:020C80006C27DF
:020C8200182731
:020C84004927FE
:020C86008B26BB
:020C880026271D
:020C8A0013272E
:020C8C009527AA
:020C8E005527E8
:020C9000F42648
:020C92002F270A
:020C9400E62652
:020C9600FA263C
:020C98003927FA
:020C9A00A02791
:020C9C00AD2683
:020C9E007627B7
:020CA000072724
:020CA2004F27DA
:020CA400D72651
:020CA6001D2708
:020CA8005527CE
:020CAA00C4265E
:020CAC007527AA
:020CAE005C27C1
:020CB0002727F4
:020CB2006427B5
:020CB400FE261A
:020CB600122703
:020CB800AF2665
:020CBA001527FC
:020CBC000D2702
:020CBE004727C6
:020CC0006927A2
:020CC200EA2620
:020CC4004027C7
:020CC6002227E3
:020CC8001327F0
:020CCA00782789
:020CCC002227DD
:020CCE004A27B3
:020CD000CB2631
:020CD2003B27BE
:020CD400DB261D
:020CD6005F2796
:020CD800F726FD
:020CDA0092275F
:020CDC002C27C3
:020CDE005D2790
:020CE000562795
:020CE2002127C8
:020CE4003027B7
:020CE600B12635
:020CE8002D27B6
:020CEA00902652
:020CEC0062277D
:020CEE0041279C
:020CF0007F275C
:020CF200C72712
:020CF400D926FF
:020CF6003E2797
:020CF8009F2635
:020CFA00B7261B
:020CFC000A27C5
:020CFE003F278E
:020D0000772753
:020D02001527B3
:020D0400622764
:020D0600722752
:020D0800CF26F4
:020D0A00372789
:020D0C001827A6
:020D0E000827B4
:020D1000272793
:020D12008B272D
:020D1400CC26EB
:020D1600722742
:020D1800F526BE
:020D1A00D026E1
:020D1C00392775
:020D1E004B2761
:020D2000F326B8
:020D2200A22706
:020D2400462760
:020D26000C2798
:020D2800402762
:020D2A00D326CE
:020D2C0014278A
:020D2E00FF269E
:020D3000422758
:020D3200FE269B
:020D3400552741
:020D3600EB26AA
:020D380066272C
:020D3A0061272F
:020D3C0020276E
:020D3E001E276E
:020D4000F52696
:020D4200202768
:020D4400F02697
:020D460027275D
:020D4800A527DD
:020D4A00FB2686
:020D4C001A2764
:020D4E00592723
:020D500000277A
:020D5200E52694
:020D5400242752
:020D5600632711
:020D5800112761
:020D5A009827D8
:020D5C002F273F
:020D5E000F275D
:020D6000FB2670
:020D6200E22687
:020D6400152751
:020D66000F2755
:020D68009427CE
:020D6A005A2706
:020D6C0031272D
:020D6E003B2721
:020D7000E1267A
:020D7200DF267A
:020D74001E2738
:020D76002B2729
:020D78006527ED
:020D7A00092747
:020D7C005627F8
:020D7E00332719
:020D80001E272C
:020D820019272F
:020D8400332713
:020D860018272C
:020D8800322710
:020D8A0036270A
:020D8C009A27A4
:020D8E00BE267F
:020D90004A27F0
:020D9200032735
:020D9400FA263D
:020D96007427C0
:020D9800B02683
:020D9A007927B7
:020D9C00F92636
:020D9E009D278F
:020DA0006827C2
:020DA2003D27EB
:020DA400DB264C
:020DA600C12664
:020DA800E7263C
:020DAA000A2716
:020DAC00852799
:020DAE006727B5
:020DB0006727B3
:020DB200DD263C
:020DB4005327C3
:020DB600EA262B
:020DB8003327DF
:020DBA003C27D4
:020DBC001D27F1
:020DBE001C27F0
:020DC000AA2661
:020DC2003627D2
:020DC400C32644
:020DC600C8273C
:020DC8002727DB
:020DCA006A2796
:020DCC002127DD
:020DCE00A92654
:020DD0003627C4
:020DD200EF260A
:020DD400A42752
:020DD600F826FD
:020DD8000B27E7
:020DDA004427AC
:020DDC00BE2631
:020DDE0081276B
:020DE0004E279C
:020DE2002027C8
:020DE4002B27BB
:020DE600A22643
:020DE8001827CA
:020DEA003727A9
:020DEC00582786
:020DEE002E27AE
:020DF0009E273C
:020DF200C32616
:020DF400F526E2
:020DF600EF26E6
:020DF800FA26D9
:020DFA001C27B4
:020DFC002B27A3
:020DFE00982734
:020E0000FE26CC
:020E02000F27B8
:020E0400D426F2
:020E0600312792
:020E0800D126F1
:020E0A005B2764
:020E0C0050276D
:020E0E00E726D5
:020E1000762743
:020E1200E826D0
:020E1400432772
:020E16001127A2
:020E18004A2767
:020E1A000C27A3
:020E1C00162797
:020E1E000D279E
:020E2000B326F7
:020E2200312776
:020E2400EE26B8
:020E2600D527CE
:020E280034276D
:020E2A0073272C
:020E2C005B2742
:020E2E00552647
:020E30002D276C
:020E3200E026B8
:020E3400F9269D
:020E360057273C
:020E380053273E
:020E3A00462749
:020E3C0073271A
:020E3E00E126AB
:020E40000A277F
:020E4200242763
:020E4400862600
:020E460047273C
:020E480062271F
:020E4A0051272E
:020E4C00052778
:020E4E00522729
:020E5000FD267D
:020E5200B926BF
:020E540068270D
:020E56001F2754
:020E580056271B
:020E5A00472728
:020E5C0003276A
:020E5E005D270E
:020E6000E22688
:020E62002A273D
:020E6400002765
:020E660037272C
:020E68003C2725
:020E6A005A2705
:020E6C00462717
:020E6E00F92663
:020E7000172742
:020E7200232734
:020E74003B271A
:020E7600E9266B
:020E7800FF2653
:020E7A0002274D
:020E7C000D2740
:020E7E006227E9
:020E80007E27CB
:020E82005427F3
:020E8400AC269A
:020E86001B2728
:020E8800C12681
:020E8A009D27A2
:020E8C0031270C
:020E8E000F272C
:020E90007427C5
:020E92009726A1
:020E9400FF2637
:020E96007A27B9
:020E980013271E
:020E9A007527BA
:020E9C00FE2630
:020E9E00042727
:020EA000BF266B
:020EA2007827AF
:020EA400B7266F
:020EA60095278E
:020EA8006127C0
:020EAA00D6264A
:020EAC006127BC
:020EAE004427D7
:020EB000192700
:020EB200D02648
:020EB4004F27C6
:020EB6006E26A6
:020EB8002C27E5
:020EBA002527EA
:020EBC005127BC
:020EBE0090277B
:020EC0002527E4
:020EC2005A27AD
:020EC400E62620
:020EC600A32661
:020EC8000327FE
:020ECA001327EC
:020ECC00A42759
:020ECE001027EB
:020ED000822777
:020ED200F72601
:020ED400E9260D
:020ED600BD2637
:020ED8005127A0
:020EDA003727B8
:020EDC00CC2622
:020EDE009D274E
:020EE000C32627
:020EE200AC273B
:020EE4000727DE
:020EE6002427BF
:020EE800C4261E
:020EEA000327DC
:020EEC00C92615
:020EEE00992742
:020EF000862753
:020EF20038279F
:020EF400E726EF
:020EF6001027C3
:020EF80086264C
:020EFA0090273F
:020EFC000F27BE
:020EFE00752756
:020F0000582770
:020F02005F2767
:020F04000027C4
:020F06001827AA
:020F0800CE26F3
:020F0A00A82617
:020F0C006D274F
:020F0E001527A5
:020F1000E827D0
:020F12000D27A9
:020F14007A273A
:020F1600C626ED
:020F18000327AD
:020F1A000E27A0
:020F1C00662746
:020F1E00BE26ED
:020F20006A273E
:020F2200442762
:020F2400EA26BB
:020F26005D2745
:020F28003F2761
:020F2A00D326CC
:020F2C005F273D
:020F2E00BB26E0
:020F3000742724
:020F32005B273B
:020F340085270F
:020F36003D2755
:020F3800F82699
:020F3A00C126CE
:020F3C0080260D
:020F3E00652725
:020F4000822706
:020F4200B027D6
:020F4400622722
:020F46004C2736
:020F48009D26E4
:020F4A008D26F2
:020F4C008C27F0
:020F4E00FE267D
:020F50009127E7
:020F5200462730
:020F54002F2745
:020F56001A2758
:020F5800C626AB
:020F5A00292745
:020F5C002A2742
:020F5E003F272B
:020F60007927EF
:020F6200522714
:020F64002D2737
:020F660014274E
:020F6800BA26A7
:020F6A00FD2662
:020F6C007227EA
:020F6E00D1268A
:020F700039271F
:020F72005927FD
:020F74003A271A
:020F76005427FE
:020F7800182738
:020F7A000D2741
:020F7C00C72686
:020F7E00BD268E
:020F80009E27AA
:020F82003E2708
:020F84007B27C9
:020F860037270B
:020F8800E5265C
:020F8A00E1265E
:020F8C0010272C
:020F8E002E270C
:020F90004527F3
:020F92005127E5
:020F9400332701
:020F96004527ED
:020F9800E12650
:020F9A00EE2641
:020F9C0021270B
:020F9E00DF264C
:020FA000A52783
:020FA200152711
:020FA4001F2705
:020FA6003527ED
:020FA80016270A
:020FAA00ED2632
:020FAC007927A3
:020FAE00E62635
:020FB000ED262C
:020FB2005E27B8
:020FB400A7266E
:020FB6008D2785
:020FB8002127EF
:020FBA005F27AF
:020FBC002427E8
:020FBE00C22649
:020FC0006127A7
:020FC200802687
:020FC4003E27C6
:020FC600812781
:020FC8002527DB
:020FCA004A27B4
:020FCC001027EC
:020FCE001E27DC
:020FD000EF260A
:020FD20088276E
:020FD4000227F2
:020FD6005A2798
:020FD8002627CA
:020FDA00AC2643
:020FDC0061278B
:020FDE00E52606
:020FE000502798
:020FE2000F27D7
:020FE400822762
:020FE6000327DF
:020FE8008B2755
:020FEA000027DE
:020FEC00DE26FF
:020FEE003727A3
:020FF000942645
:020FF2002127B5
:020FF4000D27C7
:020FF6005C2776
:020FF800F526DC
:020FFA004C2782
:020FFC00852747
:020FFE00C42607
:02100000762751
:021002003A278B
:02100400A5261F
:0210060064275D
:021008000E27B1
:02100A00D926E5
:02100C00462775
:02100E000C27AD
:021010003D277A
:021012002C2789
:0210140059275A
:0210160067274A
:0210180033277C
:02101A0011279C
:02101C00DA26D2
:02101E004A275F
:02102000CA26DE
:0210220037276E
:0210240046275D
:021026005C2745
:02102800092796
:02102A00352768
:02102C003E275D
:02102E00D526C5
:0210300028276F
:0210320036275F
:02103400E326B1
:0210360072271F
:02103800CD26C3
:02103A00F92695
:02103C00632728
:02103E00302759
:0210400038274F
:021042008827FD
:021044008926FB
:02104600E92699
:02104800CE26B2
:02104A00042779
:02104C00492732
:02104E004A272F
:02105000B527C2
:02105200C626B0
:02105400112762
:02105600BF26B3
:021058000E2761
:02105A0022274B
:02105C00A927C2
:02105E00252744
:02106000352732
:02106200BE26A8
:021064009526CF
:021066001D2744
:02106800562709
:02106A00352728
:02106C008327D8
:02106E00202739
:02107000C42694
:0210720017273E
:02107400E6266E
:0210760042270F
:021078002F2720
:02107A0043270A
:02107C002F271C
:02107E00AE269C
:02108000EA265E
:02108200EB265B
:021084006527DE
:021086005E27E3
:021088007627C9
:02108A0032270B
:02108C007326C9
:02108E00E92651
:02109000B22686
:021092005527E0
:021094009D2796
:021096000A2727
:021098007527BA
:02109A00CC2662
:02109C00B2267A
:02109E004B27DE
:0210A000032724
:0210A2005527D0
:0210A4004B27D8
:0210A6002327FE
:0210A8004127DE
:0210AA002827F5
:0210AC0000271B
:0210AE002127F8
:0210B000A42674
:0210B200E9262D
:0210B4000C2707
:0210B6006327AE
:0210B8004D27C2
:0210BA00D92734
:0210BC00FC2610
:0210BE00AE265C
:0210C0004327C4
:0210C200962670
:0210C4000927FA
:0210C6004527BC
:0210C8005627A9
:0210CA005C27A1
:0210CC00FE26FE
:0210CE004827B1
:0210D000E22616
:0210D200C9262D
:0210D4004C27A7
:0210D60057279A
:0210D800662789
:0210DA001E27CF
:0210DC00FD26EF
:0210DE003F27AA
:0210E000B82630
:0210E2001D27C8
:0210E400512792
:0210E6000E27D3
:0210E80053278C
:0210EA00642779
:0210EC00F726E5
:0210EE007B275E
:0210F000DB26FD
:0210F2002127B4
:0210F400E026F4
:0210F6001227BF
:0210F8002627A9
:0210FA00D826F6
:0210FC00B52716
:0210FE00862743
:02110000562770
:021102002F2795
:02110400A32620
:021106008A2637
:02110800EE26D1
:02110A00762746
:02110C00CE27EC
:02110E00902728
:021110004A276C
:02111200602655
:02111400ED26C6
:02111600C026F1
:02111800B627F8
:02111A00692743
:02111C00252785
:02111E00182790
:02112000F126B6
:02112200F826AD
:02112400122790
:0211260074272C
:02112800F226AD
:02112A00392763
:02112C00F226A9
:02112E00832715
:02113000C926CE
:021132000D2787
:0211340066272C
:02113600D326BE
:0211380044274A
:02113A0022276A
:02113C00432747
:02113E002E275A
:021140002A275C
:0211420049273B
:02114400DE26A5
:02114600CF26B2
:02114800292755
:02114A00FA2683
:02114C009027EA
:02114E00382740
:02115000702706
:0211520047272D
:02115400C926AA
:02115600D92698
:02115800B226BD
:02115A00D92694
:02115C00532717
:02115E00432725
:02116000F7276F
:02116200042760
:021164000F2753
:02116600BF26A2
:02116800D3268C
:02116A00BA26A3
:02116C00C62794
:02116E00E22677
:02117000A327B3
:021172004A270A
:021174009326C0
:021176006327ED
:02117800D4267B
:02117A00F92654
:02117C006D27DD
:02117E004E27FA
:02118000DF2668
:021182007A27CA
:0211840004273E
:02118600E02661
:02118800152729
:02118A0010272C
:02118C00C32678
:02118E005527E3
:02119000BC277A
:0211920016271E
:02119400AC2786
:02119600E12650
:021198008826A7
:02119A00042728
:02119C00DC264F
:02119E00B52773
:0211A0003327F3
:0211A2007027B4
:0211A400EA2639
:0211A60006271A
:0211A8000D2711
:0211AA007227AA
:0211AC004027DA
:0211AE00F92620
:0211B0003727DF
:0211B200F6261F
:0211B400DE2635
:0211B6006727A9
:0211B8003927D5
:0211BA006E279E
:0211BC003127D9
:0211BE001527F3
:0211C000B62651
:0211C200FD2608
:0211C400BB2648
:0211C600AD2753
:0211C8006A2794
:0211CA00672795
:0211CC004327B7
:0211CE00F82601
:0211D000BE2639
:0211D2001C27D8
:0211D4003527BD
:0211D6004D27A3
:0211D8005F278F
:0211DA005D278F
:0211DC000427E6
:0211DE000027E8
:0211E000F526F2
:0211E200FD26E8
:0211E4003027B2
:0211E600682778
:0211E800DC2603
:0211EA008E274E
:0211EC00DA2601
:0211EE00582780
:0211F0004C278A
:0211F200742760
:0211F400BF2614
:0211F600FE26D3
:0211F800FD26D2
:0211FA000827C4
:0211FC00B32717
:0211FE00442784
:0212000077274E
:02120200CF26F5
:02120400D926E9
:02120600F326CD
:021208000D27B0
:02120A0040277B
:02120C00502769
:02120E000627B1
:021210006D2748
:02121200FE26B6
:021214002E2783
:0212160060274F
:02121800FB26B3
:02121A00272784
:02121C00282781
:02121E00DA26CE
:0212200059274C
:021222000327A0
:021224005F2742
:0212260020277F
:021228006F272E
:02122A00E926B3
:02122C00622737
:02122E00112786
:02123000DB26BB
:02123200122781
:02123400DC26B6
:02123600A527EA
:02123800242769
:02123A00862705
:02123C00662723
:02123E00CB26BD
:02124000F42692
:02124200432740
:02124400DB26A7
:0212460055272A
:02124800162767
:02124A008F27EC
:02124C005F271A
:02124E003C273B
:02125000032772
:02125200DF2695
:021254000F2762
:0212560001276E
:021258008427E9
:02125A008F27DC
:02125C00122757
:02125E00332734
:0212600028273D
:02126200B426B0
:021264005D2704
:02126600D6268A
:021268003E271F
:02126A008B27D0
:02126C008727D2
:02126E00152742
:02127000502705
:02127200322721
:021274004D2605
:021276007127DE
:02127800272726
:02127A00122739
:02127C005E27EB
:02127E004D27FA
:021280004827FD
:021282000D2736
:021284005B27E6
:021286004827F7
:02128800D2266C
:02128A001D271E
:02128C00E42656
:02128E00032734
:021290009B279A
:021292000A2729
:02129400B2277F
:021296003227FD
:021298009B2693
:02129A001D270E
:02129C002F27FA
:02129E00D82650
:0212A0009E2787
:0212A2008E2795
:0212A400CB2657
:0212A6003827E7
:0212A800A52679
:0212AA003027EB
:0212AC00152704
:0212AE006D27AA
:0212B000B22763
:0212B2003927DA
:0212B400102701
:0212B600C02650
:0212B8000C2701
:0212BA00C2264A
:0212BC00E32627
:0212BE008A277D
:0212C000032702
:0212C200922771
:0212C400692798
:0212C6002527DA
:0212C8000C27F1
:0212CA007A2682
:0212CC00BE263C
:0212CE001027E7
:0212D0006D2788
:0212D200C22731
:0212D40064278D
:0212D6003727B8
:0212D800BE2630
:0212DA00B72635
:0212DC001C27CD
:0212DE00A42644
:0212E0009D2748
:0212E2001427CF
:0212E4003527AC
:0212E6001227CD
:0212E8004D2790
:0212EA00D32609
:0212EC000427D5
:0212EE006A276D
:0212F000D22604
:0212F2002527AE
:0212F400C8260A
:0212F6000627C9
:0212F8001027BD
:0212FA0071275A
:0212FC00342795
:0212FE00732754
:02130000C42601
:021302002027A2
:021304009A2627
:0213060020279E
:02130800372785
:02130A00482772
:02130C00612757
:02130E001327A3
:021310005B2759
:0213120075263E
:02131400372779
:02131600FA26B5
:02131800232789
:02131A00492761
:02131C00E226C7
:02131E00232783
:0213200025277F
:02132200DE26C5
:021324004F2751
:02132600062798
:0213280012278A
:02132A00EB26B0
:02132C00572741
:02132E00AC26EB
:021330009A27FA
:0213320007278B
:02133400F6269B
:0213360003278B
:021338003F274D
:02133A00AE26DD
:02133C00302758
:02133E006D2719
:02134000002784
:02134200492739
:02134400082778
:02134600582726
:02134800EB2692
:02134A00052775
:02134C00FC267D
:02134E002D2749
:02135000EE2687
:02135200B227C0
:021354003A2736
:021356003D2731
:0213580022274A
:02135A006C26FF
:02135C001A274E
:02135E00162750
:021360005B2709
:021362009D27C5
:02136400DF2682
:02136600482716
:02136800AD26B0
:02136A00FE265D
:02136C00082750
:02136E00DA267D
:021370003D2717
:021372003F2713
:02137400382718
:021376005D27F1
:021378007A27D2
:02137A009A26B1
:02137C00F02659
:02137E009C26AB
:021380005C27E8
:02138200102732
:021384008227BE
:021386009127AD
:02138800262716
:02138A00B82683
:02138C00AF268A
:02138E00DC265B
:02139000332701
:02139200302702
:02139400E82748
:021396004627E8
:02139800D3265A
:02139A00C62665
:02139C00C92660
:02139E00E72640
:0213A0004627DE
:0213A2009D2785
:0213A400EA2637
:0213A6006F27AF
:0213A800A92674
:0213AA004127D9
:0213AC00CC264D
:0213AE006027B6
:0213B000CC2649
:0213B2007027A2
:0213B40085268C
:0213B6005A27B4
:0213B8003627D6
:0213BA00E32628
:0213BC007F2789
:0213BE00BC264B
:0213C0006F2795
:0213C200AD2656
:0213C4001727E9
:0213C6005527A9
:0213C8002727D5
:0213CA005127A9
:0213CC002327D5
:0213CE002D27C9
:0213D000AE2647
:0213D200D7261C
:0213D4000F27E1
:0213D60053279B
:0213D8003D27AF
:0213DA007F276B
:0213DC000427E4
:0213DE00FC26EB
:0213E000DA260B
:0213E200C5261E
:0213E40041279F
:0213E60054278A
:0213E800582784
:0213EA001727C3
:0213EC00D32606
:0213EE00FF26D8
:0213F000652670
:0213F2006D2765
:0213F400B82718
:0213F60054277A
:0213F8005F276D
:0213FA00E226E9
:0213FC00A22627
:0213FE00642663
:02140000502773
:02140200512770
:02140400F927C6
:02140600372786
:02140800AB2710
:02140A00A72613
:02140C00A42614
:02140E00702646
:0214100027278C
:02141200392778
:02141400E627C9
:02141600C227EB
:02141800432768
:02141A00BF26EB
:02141C007C262C
:02141E00AF26F7
:02142000F426B0
:02142200B527EC
:02142400C727D8
:0214260061273C
:0214280010278B
:02142A00032796
:02142C009A26FE
:02142E00FF2697
:02143000C926CB
:021432006A2727
:021434003E2751
:021436009E27EF
:0214380031275A
:02143A00402749
:02143C00012786
:02143E00B426D2
:021440003F2744
:02144200412740
:02144400262759
:02144600582725
:02144800D526A7
:02144A008B27EE
:02144C001F2758
:02144E003A273B
:0214500036273D
:02145200F92679
:02145400D5269B
:02145600F4267A
:02145800C327A8
:02145A00FF266B
:02145C009027D7
:02145E001D2748
:02146000312732
:02146200C226A0
:021464007027EF
:02146600FA2664
:021468001E273D
:02146A00222737
:02146C00D82680
:02146E00332722
:02147000422711
:021472005827F9
:021474004C2703
:021476004C2701
:021478005627F5
:02147A00AE269C
:02147C006127E6
:02147E00B8268E
:02148000022741
:021482004F27F2
:021484004F27F0
:021486009527A8
:02148800172724
:02148A005727E2
:02148C005926DF
:02148E005D27D8
:02149000032730
:02149200F5263D
:021494009C2793
:021496003227FB
:021498005427D7
:02149A006827C1
:02149C004427E3
:02149E00EA263C
:0214A0009F2685
:0214A2003627EB
:0214A400D1264F
:0214A600AE276F
:0214A8004727D4
:0214AA006A27AF
:0214AC00F82620
:0214AE00E42632
:0214B0003627DD
:0214B2002F27E2
:0214B4003F27D0
:0214B6003A27D3
:0214B8006D279E
:0214BA00AF265B
:0214BC005027B7
:0214BE003127D4
:0214C000E5261F
:0214C2005927A8
:0214C4001527EA
:0214C60060279D
:0214C8005F279C
:0214CA005727A2
:0214CC00842773
:0214CE006D2689
:0214D0004727AC
:0214D200EA2608
:0214D4002C27C3
:0214D6002A27C3
:0214D8001E27CD
:0214DA00682781
:0214DC00FB26ED
:0214DE00A42741
:0214E0004027A3
:0214E2000327DE
:0214E4000D27D2
:0214E600BA2624
:0214E8003827A3
:0214EA003427A5
:0214EC00A9272E
:0214EE003127A4
:0214F0002527AE
:0214F2001127C0
:0214F400572679
:0214F600682765
:0214F800D926F3
:0214FA00712758
:0214FC00E427E3
:0214FE003F2786
:02150000612761
:02150200E526DC
:021504000027BE
:021506008B2632
:021508001D279D
:02150A00B62702
:02150C00912725
:02150E00802734
:021510006A2748
:02151200E126D0
:021514008F2620
:021516000A27A2
:021518000627A4
:02151A005E274A
:02151C0018278E
:02151E0075272F
:021520002A2778
:021522003D2763
:021524003A2764
:02152600292773
:021528000E278C
:02152A00182780
:02152C00C026D7
:02152E00F226A3
:02153000FC2697
:02153200092787
:021534005D2731
:021536001A2772
:02153800D527B5
:02153A00C326C6
:02153C00052781
:02153E004C2738
:02154000C526BE
:02154200F12690
:021544004D2731
:0215460000277C
:02154800782702
:02154A00332745
:02154C004B272B
:02154E007627FE
:02155000A126D2
:02155200FD2674
:02155400CD26A2
:02155600EA2683
:0215580040272A
:02155A00602708
:02155C008C27DA
:02155E0015274F
:02156000112751
:02156200C2269F
:02156400182746
:02156600D42689
:021568007127E9
:02156A00402718
:02156C00D9267E
:02156E007927DB
:02157000EA2669
:02157200C7268A
:0215740004274A
:02157600D72676
:021578005027FA
:02157A00D72672
:02157C00E62760
:02157E000E2736
:02158000DF2664
:021582004927F7
:02158400A0269F
:02158600142728
:02158800EE264D
:02158A00342704
:02158C004227F4
:02158E001F2715
:02159000AC2786
:0215920015271B
:02159400FF2630
:021596000C2720
:021598006226C9
:02159A00DB264E
:02159C002F27F7
:02159E009E2786
:0215A0003B27E7
:0215A20084279C
:0215A400182706
:0215A6006B26B2
:0215A8004B27CF
:0215AA00E02639
:0215AC003827DE
:0215AE00F8261D
:0215B0002A27E8
:0215B200B3265E
:0215B4005C27B2
:0215B6008E277E
:0215B8002727E3
:0215BA001027F8
:0215BC000B27FB
:0215BE00012703
:0215C000A7265C
:0215C2005B27A5
:0215C4004427BA
:0215C6004627B6
:0215C8003727C3
:0215CA005E279A
:0215CC00652791
:0215CE0096265F
:0215D000F426FF
:0215D200D02621
:0215D400F026FF
:0215D6007D276F
:0215D8007D276D
:0215DA00662782
:0215DC002327C3
:0215DE00802665
:0215E0002927B9
:0215E200A82639
:0215E4003927A5
:0215E60071276B
:0215E8003227A8
:0215EA002A27AE
:0215EC000D27C9
:0215EE001127C3
:0215F00085264E
:0215F20065276B
:0215F4002A27A4
:0215F600632769
:0215F800372793
:0215FA000227C6
:0215FC00FE26C9
:0215FE001827AC
:021600002A2797
:02160200792746
:021604000627B7
:021606000527B6
:02160800CF26EB
:02160A00532764
:02160C0028278D
:02160E0065274E
:02161000F926B9
:021612002C2783
:02161400D526D9
:02161600282783
:02161800422767
:02161A00FE26AA
:02161C005F2746
:02161E001D2786
:02162000F626AC
:021622006A2735
:0216240033276A
:02162600BF26DD
:021628002B276E
:02162A00362761
:02162C00BA26DC
:02162E00602733
:02163000E526AD
:021632001C2773
:02163400CD26C1
:021636000E277D
:021638000E277B
:02163A005A272D
:02163C009627EF
:02163E00002783
:021640008727FA
:021642009B26E5
:02164400FB2683
:02164600BF26BD
:02164800382741
:02164A003E2739
:02164C00002775
:02164E0055271E
:02165000FE2674
:02165200592716
:021654003F272E
:021656001B2750
:021658004D271C
:02165A00C826A0
:02165C00F02676
:02165E003F2724
:021660004A2717
:0216620020273F
:02166400162747
:0216660021273A
:02166800A026BA
:02166A00252732
:02166C006F27E6
:02166E004C2707
:021670006127F0
:021672005327FC
:021674009526B9
:02167600372714
:021678009226B8
:02167A00B32794
:02167C00012744
:02167E00B6278D
:02168000292718
:021682001F2720
:02168400F72647
:02168600E92653
:02168800EB264F
:02168A00F9263F
:02168C009127A4
:02168E0024270F
:021690008327AE
:02169200EF2641
:02169400F3263B
:02169600DA2652
:021698007C27AD
:02169A00022725
:02169C005C27C9
:02169E007827AB
:0216A000B12671
:0216A2004127DE
:0216A400D52649
:0216A600172704
:0216A8003B27DE
:0216AA004F27C8
:0216AC00952780
:0216AE0009270A
:0216B0001A27F7
:0216B200E2262E
:0216B400D1263D
:0216B6004B27C0
:0216B8002427E5
:0216BA00C12746
:0216BC00F9260D
:0216BE007C2787
:0216C0003627CB
:0216C2008B2675
:0216C40070278D
:0216C600E0261C
:0216C800EA2610
:0216CA0059279E
:0216CC00EA260C
:0216CE0068278B
:0216D0007E2773
:0216D20054279B
:0216D4002F27BE
:0216D600E42608
:0216D800A82642
:0216DA00D02618
:0216DC004227A3
:0216DE0045279E
:0216E000B12730
:0216E2005C2783
:0216E4005E277F
:0216E6002227B9
:0216E800DB26FF
:0216EA009C263C
:0216EC00FD26D9
:0216EE00E626EE
:0216F0006D2764
:0216F200482787
:0216F4003E278F
:0216F6009F272C
:0216F8002827A1
:0216FA001827AF
:0216FC0038278D
:0216FE00632661
:021700001927A7
:02170200D926E6
:02170400772745
:02170600E427D6
:02170800BF26FA
:02170A00D427E2
:02170C00552660
:02170E000727AB
:02171000FA26B7
:0217120030277E
:02171400862726
:021716000927A1
:02171800662742
:02171A00D826CF
:02171C003F2765
:02171E00A926FA
:0217200022277E
:0217220043275B
:02172400132789
:021726007D271D
:021728008F2709
:02172A00DC26BB
:02172C00DE26B7
:02172E00E026B3
:02173000DC26B5
:02173200462748
:021734008A2702
:021736005C272E
:0217380029275F
:02173A004F2737
:02173C009126F4
:02173E000D2775
:02174000482738
:02174200E92696
:02174400752707
:021746006E270C
:02174800FB267E
:02174A00E62691
:02174C000D2767
:02174E00492729
:02175000E7268A
:02175200AA27C4
:02175400F42679
:02175600F32678
:02175800172751
:02175A00052761
:02175C005E2706
:02175E003A2728
:021760000A2756
:021762004A2714
:021764001E273E
:021766006927F1
:02176800ED266C
:02176A008327D3
:02176C006C26E9
:02176E00DC2677
:021770003F2711
:0217720044270A
:021774003C2710
:021776008727C3
:021778001F2729
:02177A00032743
:02177C00222722
:02177E000F2733
:021780006B27D5
:02178200AE2691
:021784007427C8
:02178600EE264D
:021788000D272B
:02178A008627B0
:02178C0015271F
:02178E003327FF
:02179000C3266E
:021792002B2703
:02179400062726
:02179600E82643
:02179800EB273D
:02179A005F27C7
:02179C00E12644
:02179E00F9262A
:0217A000F02631
:0217A200AE2671
:0217A4003027EC
:0217A6007C279E
:0217A8005827C0
:0217AA001D27F9
:0217AC006127B3
:0217AE00B02663
:0217B0004127CF
:0217B200A72668
:0217B400C72646
:0217B6005127B9
:0217B8004027C8
:0217BA006627A0
:0217BC00E12723
:0217BE00DD2626
:0217C000E82619
:0217C200DB2624
:0217C400E2261B
:0217C600F1260A
:0217C800632795
:0217CA005527A1
:0217CC00F826FD
:0217CE004C27A6
:0217D0005D2793
:0217D200C62629
:0217D4004627A6
:0217D600B82633
:0217D800C52624
:0217DA00F526F2
:0217DC0059278B
:0217DE0063277F
:0217E000592787
:0217E2002E27B0
:0217E400A3263A
:0217E600D92602
:0217E800F026E9
:0217EA001127C5
:0217EC00522782
:0217EE000227D0
:0217F0006B2765
:0217F2003A2794
:0217F400DB26F2
:0217F600952735
:0217F8008D263C
:0217FA000027C6
:0217FC00F226D3
:0217FE0053276F
:02180000EE26D2
:02180200472776
:02180400292792
:02180600CD26ED
:02180800702747
:02180A00F226C4
:02180C00322781
:02180E00D726DB
:02181000382777
:02181200572756
:02181400332778
:021816004D275C
:021818008B261D
:02181A00F226B4
:02181C00E526BF
:02181E008B2716
:0218200042275D
:02182200A327FA
:02182400B426E8
:02182600112788
:02182800CF26C9
:02182A0019277C
:02182C00222771
:02182E0023276E
:021830003D2752
:021832000B2782
:021834005D272E
:02183600B826D2
:02183800FE268A
:02183A002C2759
:02183C0018276B
:02183E0075270C
:021840008127FE
:02184200642719
:02184400B226CA
:021846008526F5
:02184800252752
:02184A007926FD
:02184C008027F3
:02184E009827D9
:021850000B2764
:02185200582715
:02185400FD266F
:021856001D274C
:02185800AB26BD
:02185A006927FC
:02185C0008275B
:02185E00E7267B
:021860006E27F1
:021862003F271E
:021864002A2731
:02186600012758
:0218680049270E
:02186A00B326A3
:02186C00032750
:02186E002C2725
:0218700024272B
:02187200262727
:021874009227B9
:02187600072742
:021878002E2719
:02187A0037270E
:02187C004E27F5
:02187E00F02652
:02188000362709
:02188200D1266D
:02188400C92673
:02188600182721
:021888002C270B
:02188A006E27C7
:02188C007127C2
:02188E002E2703
:02189000F92637
:02189200E0264E
:021894002F27FC
:02189600C0266A
:021898003F27E8
:02189A00F12635
:02189C001F2704
:02189E00E5263D
:0218A0002027FF
:0218A2006927B4
:0218A40011270A
:0218A6007527A4
:0218A800142703
:0218AA00E62630
:0218AC00912683
:0218AE005F27B2
:0218B000F6261A
:0218B2004B27C2
:0218B4009B2770
:0218B600F72613
:0218B800F12617
:0218BA0079278C
:0218BC000627FD
:0218BE002827D9
:0218C000B82648
:0218C2000D27F0
:0218C400B0264C
:0218C6005D279C
:0218C800732784
:0218CA0068278D
:0218CC004127B2
:0218CE00DC2616
:0218D0003A27B5
:0218D200BE2630
:0218D40051279A
:0218D6000327E6
:0218D8001B27CC
:0218DA001327D2
:0218DC003B27A8
:0218DE002027C1
:0218E0001D27C2
:0218E2001D27C0
:0218E400E126FB
:0218E600EB26EF
:0218E80078275F
:0218EA0037279E
:0218EC00412792
:0218EE00802751
:0218F000B1261F
:0218F200EB26E3
:0218F400332798
:0218F600462783
:0218F8002327A4
:0218FA009B272A
:0218FC000927BA
:0218FE00DC26E6
:02190000E526DA
:02190200AE260F
:021904006C274E
:02190600532765
:021908005E2758
:02190A005F2755
:02190C001E2794
:02190E00A82609
:0219100074273A
:02191200C726E6
:02191400842726
:021916000027A8
:02191800512755
:02191A00EA26BB
:02191C00502752
:02191E00092797
:02192000BA26E5
:02192200AE27EE
:02192400C126DA
:021926008B270D
:02192800522744
:02192A006A272A
:02192C00D126C2
:02192E00FC2695
:0219300032275C
:02193200B826D5
:021934008D27FD
:021936005B272D
:021938001F2767
:02193A00402744
:02193C00D126B2
:02193E00B726CA
:021940003A2744
:02194200262756
:021944009C27DE
:02194600582720
:02194800742702
:02194A00E22693
:02194C00AF26C4
:02194E00092767
:02195000E0268F
:02195200572715
:02195400122758
:02195600362732
:02195800F9266E
:02195A00402724
:02195C005D2705
:02195E004F2711
:021960006427FA
:02196200DA2683
:02196400EB2670
:02196600E02679
:02196800332723
:02196A003E2716
:02196C006327EF
:02196E008927C7
:02197000B62699
:02197200042748
:02197400A926A2
:02197600CB267E
:021978004F27F7
:02197A00BC2788
:02197C004A27F8
:02197E002E2712
:021980004C27F2
:021982003C2601
:021984004C27EE
:021986000B272D
:0219880029270D
:02198A005227E2
:02198C00F22641
:02198E007227BE
:02199000982697
:02199200A2278A
:02199400EC263F
:021996006227C6
:021998003C27EA
:02199A001C2708
:02199C003127F1
:02199E00B6266B
:0219A0006727B7
:0219A2000D270F
:0219A4000B270F
:0219A6005F27B9
:0219A800F9261E
:0219AA00D9263C
:0219AC006827AA
:0219AE000C2704
:0219B000AD2761
:0219B200B42659
:0219B4003F27CB
:0219B600DF262A
:0219B8001A27EC
:0219BA007B2789
:0219BC002727DB
:0219BE006027A0
:0219C000F92606
:0219C2001127EB
:0219C400C1263A
:0219C6008B276D
:0219C800D62621
:0219CA006F2785
:0219CC00622790
:0219CE001B27D5
:0219D0002827C6
:0219D2000827E4
:0219D4002727C3
:0219D600C72622
:0219D800902756
:0219DA001227D2
:0219DC0048279A
:0219DE00602780
:0219E0002127BD
:0219E200FE26DF
:0219E4002A27B0
:0219E600CE260B
:0219E800812755
:0219EA00D42601
:0219EC003227A0
:0219EE00572779
:0219F0001D27B1
:0219F2001127BB
:0219F400692761
:0219F6000F27B9
:0219F8003B278B
:0219FA00D026F5
:0219FC00822740
:0219FE00F726CA
:021A0000F726C7
:021A02001027AB
:021A0400552764
:021A0600E426D4
:021A08007F2736
:021A0A0055275E
:021A0C00D726DB
:021A0E00472768
:021A100010279D
:021A120070273B
:021A1400212788
:021A1600442763
:021A1800842622
:021A1A0025277E
:021A1C0033276E
:021A1E0025277A
:021A2000D127CC
:021A2200482753
:021A2400C926D1
:021A26003B275C
:021A2800922604
:021A2A00722721
:021A2C00BC26D6
:021A2E008E2701
:021A3000CA26C4
:021A3200682723
:021A3400262763
:021A36008D27FA
:021A3800342751
:021A3A00202763
:021A3C009226F0
:021A3E000D2772
:021A4000ED2691
:021A42008527F6
:021A4400242755
:021A4600B327C4
:021A4800DD2699
:021A4A002C2747
:021A4C00E02692
:021A4E00DA2696
:021A5000D3269B
:021A5200482723
:021A54001D274C
:021A56008427E3
:021A5800432722
:021A5A0009275A
:021A5C000D2754
:021A5E0010274F
:021A60006127FC
:021A6200EF266D
:021A6400352724
:021A6600D12687
:021A6800CA268C
:021A6A00332720
:021A6C002F2722
:021A6E008927C6
:021A70005427F9
:021A72005A27F1
:021A7400DB266F
:021A7600BB268D
:021A7800022743
:021A7A00DA266A
:021A7C00B6278B
:021A7E00272718
:021A80005C27E1
:021A82003A2701
:021A84009826A2
:021A8600172720
:021A88002B270A
:021A8A00F12643
:021A8C007A27B7
:021A8E00CF2661
:021A9000992794
:021A9200A32689
:021A94003F27EA
:021A9600B52673
:021A98007527B0
:021A9A00B8266C
:021A9C0094278D
:021A9E006C27B3
:021AA000162707
:021AA2002B27F0
:021AA4003D27DC
:021AA600C72651
:021AA800FC261A
:021AAA001827FB
:021AAC00E8262A
:021AAE0090277F
:021AB000EF261F
:021AB200CC273F
:021AB4003827D1
:021AB600EA261E
:021AB800F52611
:021ABA00F22612
:021ABC00EB2617
:021ABE00EA2616
:021AC0009A2763
:021AC2004927B2
:021AC4005827A1
:021AC6001027E7
:021AC8002227D3
:021ACA00B7263D
:021ACC00CC2626
:021ACE00FD26F3
:021AD000B2273B
:021AD200582793
:021AD4002A27BF
:021AD600862761
:021AD800EC26FA
:021ADA00EE26F6
:021ADC00DC2606
:021ADE00592786
:021AE0001227CB
:021AE200EE26EE
:021AE400DB27FE
:021AE6002A27AD
:021AE80036279F
:021AEA003027A3
:021AEC00B02622
:021AEE000127CE
:021AF000F426DA
:021AF2007A2751
:021AF400772752
:021AF600502777
:021AF8001B27AA
:021AFA000027C3
:021AFC00ED26D5
:021AFE00F726C9
:021B0000F826C5
:021B0200392781
:021B04001427A4
:021B06002C278A
:021B08009E2716
:021B0A00E226D1
:021B0C0073273D
:021B0E00F826B7
:021B1000BB26F2
:021B120030277A
:021B1400742734
:021B1600132793
:021B180077272D
:021B1A00392769
:021B1C00B826E9
:021B1E0033276B
:021B2000182784
:021B2200862714
:021B24001E277A
:021B260039275D
:021B2800F8269D
:021B2A0026276C
:021B2C000D2783
:021B2E003B2753
:021B30001C2770
:021B3200292761
:021B3400CA26BF
:021B36002C275A
:021B3800342750
:021B3A008B27F7
:021B3C000D2773
:021B3E003E2740
:021B400051272B
:021B42008226F9
:021B4400542724
:021B4600262750
:021B480005276F
:021B4A00F6267D
:021B4C00502720
:021B4E00FE2671
:021B5000562716
:021B5200412729
:021B5400422726
:021B56004A271C
:021B580028273C
:021B5A001B2747
:021B5C00F4266D
:021B5E000F274F
:021B6000FE265F
:021B6200382722
:021B6400B527A3
:021B6600F42663
:021B68005B27F9
:021B6A00D7267C
:021B6C00F2265F
:021B6E00082746
:021B70003E270E
:021B7200032747
:021B740009273F
:021B7600422704
:021B780018272C
:021B7A00D8276A
:021B7C00F4264D
:021B7E006027DE
:021B8000F2264B
:021B82008626B5
:021B8400E82651
:021B86007F27B7
:021B8800F22643
:021B8A00A7278B
:021B8C002C2704
:021B8E008427AA
:021B9000E1264C
:021B92003427F6
:021B9400272701
:021B960008271E
:021B98007827AC
:021B9A00F02633
:021B9C001D2703
:021B9E002627F8
:021BA000F72626
:021BA2006527B5
:021BA4002727F1
:021BA6005427C2
:021BA800FD2618
:021BAA007B2698
:021BAC008C2784
:021BAE00E2262D
:021BB0004927C3
:021BB200852785
:021BB4001927EF
:021BB600012705
:021BB8001527EF
:021BBA00D32630
:021BBC001A27E6
:021BBE000827F6
:021BC0000327F9
:021BC2005727A3
:021BC4004227B6
:021BC60059279D
:021BC8003827BC
:021BCA005D2795
:021BCC002627CA
:021BCE00C5262A
:021BD0002927C3
:021BD2000827E2
:021BD400CA261F
:021BD6005E2788
:021BD8001627CE
:021BDA002927B9
:021BDC007E2762
:021BDE000227DC
:021BE000FE26DF
:021BE200CB2610
:021BE4000827D0
:021BE600BB261C
:021BE80065276F
:021BEA003E2794
:021BEC007C2754
:021BEE000227CC
:021BF000ED26E0
:021BF20030279A
:021BF400AF261A
:021BF6000B27BB
:021BF8006F2755
:021BFA002B2797
:021BFC00D026F1
:021BFE005A2764
:021C0000EA26D2
:021C0200302789
:021C04000627B1
:021C0600742741
:021C0800EC26C8
:021C0A002A2787
:021C0C00F526BB
:021C0E001B2792
:021C100031277A
:021C1200F526B5
:021C14008A271D
:021C160039276C
:021C18002C2777
:021C1A0012278F
:021C1C0002279D
:021C1E00EA26B4
:021C2000322769
:021C2200AF26EB
:021C2400652732
:021C260009278C
:021C2800C226D2
:021C2A009C27F5
:021C2C003B2754
:021C2E00392754
:021C300011277A
:021C3200002789
:021C34009226F6
:021C3600E7269F
:021C380055272E
:021C3A0037274A
:021C3C009E27E1
:021C3E00272756
:021C4000E32699
:021C42007D27FC
:021C44009326E5
:021C46008427F1
:021C480069270A
:021C4A00CC26A6
:021C4C00572718
:021C4E00EF267F
:021C50000C275F
:021C52004B271E
:021C54007727F0
:021C560036272F
:021C58002B2738
:021C5A003C2725
:021C5C009126CF
:021C5E001F273E
:021C6000E92673
:021C6200442715
:021C64002F2728
:021C660036271F
:021C6800B4279F
:021C6A00D3267F
:021C6C0042270D
:021C6E009E26B0
:021C70005327F8
:021C72001B272E
:021C74001F2728
:021C76009A27AB
:021C7800FE2646
:021C7A000D2734
:021C7C00CD2673
:021C7E005E27DF
:021C8000E82654
:021C8200242715
:021C84009227A5
:021C8600FF2637
:021C8800CB2768
:021C8A00F4263E
:021C8C005B27D4
:021C8E000D2720
:021C90007326B9
:021C92007F27AA
:021C9400E02648
:021C96005E27C7
:021C98003C27E7
:021C9A004A27D7
:021C9C00C3265D
:021C9E003827E5
:021CA0002627F5
:021CA200172702
:021CA4004927CE
:021CA6004227D3
:021CA800D7263D
:021CAA006327AE
:021CAC00F02620
:021CAE004F27BE
:021CB0005C27AF
:021CB200C82642
:021CB4001F27E8
:021CB600F12615
:021CB800E8261C
:021CBA003A27C7
:021CBC005327AC
:021CBE00EE2610
:021CC000F0260C
:021CC200632796
:021CC400AA264E
:021CC600952760
:021CC8003127C2
:021CCA00892768
:021CCC000027EF
:021CCE003827B5
:021CD000AC2640
:021CD200D32617
:021CD4003627B1
:021CD6004127A4
:021CD800B4272F
:021CDA000827D9
:021CDC0093274C
:021CDE0074266A
:021CE000E226FA
:021CE2004B278E
:021CE400B22626
:021CE60058277D
:021CE8003F2794
:021CEA0043278E
:021CEC005B2774
:021CEE002727A6
:021CF000462785
:021CF2006A2660
:021CF400E426E4
:021CF600C926FD
:021CF800412782
:021CFA0034278D
:021CFC009E2721
:021CFE00572766
:021D00000027BA
:021D0200E226D7
:021D04000127B5
:021D0600F226C3
:021D0800192799
:021D0A00D227DE
:021D0C0020278E
:021D0E004A2762
:021D1000EC26BF
:021D12006F263A
:021D1400FB26AC
:021D16002B2779
:021D1800AA27F8
:021D1A00A327FD
:021D1C00562748
:021D1E00E026BD
:021D2000D726C4
:021D22009F26FA
:021D2400ED26AA
:021D26009C27F8
:021D2800292769
:021D2A0066272A
:021D2C009827F6
:021D2E00F0269D
:021D3000DE26AD
:021D32007D260C
:021D340007277F
:021D3600D226B3
:021D3800492739
:021D3A00C127BF
:021D3C00A327DB
:021D3E001C2760
:021D40004B272F
:021D4200D826A1
:021D44009126E6
:021D46002E2746
:021D4800C726AC
:021D4A00DA2796
:021D4C00062768
:021D4E00DA2792
:021D50002F273B
:021D5200E22687
:021D5400DA268D
:021D5600132751
:021D5800C026A3
:021D5A00B827A8
:021D5C002D2731
:021D5E007F27DD
:021D6000092751
:021D62006B27ED
:021D6400BD269A
:021D6600542700
:021D6800FB2658
:021D6A00E4266D
:021D6C00162738
:021D6E00F2265B
:021D7000192731
:021D72001B272D
:021D74008B27BB
:021D76000A273A
:021D78005D27E5
:021D7A0014272C
:021D7C008026BF
:021D7E0012272A
:021D80001F271B
:021D82007727C1
:021D8400B22784
:021D86007C27B8
:021D8800E9264A
:021D8A008D26A4
:021D8C00DF2650
:021D8E00042728
:021D90004B27DF
:021D9200C12767
:021D94005327D3
:021D96006227C2
:021D9800DD2646
:021D9A003427EC
:021D9C00B4266B
:021D9E00D3264A
:021DA0006327B7
:021DA2003627E2
:021DA4007227A4
:021DA6006127B3
:021DA800C6264D
:021DAA00F7261A
:021DAC00D62639
:021DAE00082704
:021DB0006B279F
:021DB2002E27DA
:021DB400ED261A
:021DB6006B2799
:021DB800FE2605
:021DBA00EF2612
:021DBC005E27A0
:021DBE000327F9
:021DC0000727F3
:021DC2003B27BD
:021DC40067278F
:021DC6000C27E8
:021DC800922760
:021DCA000F27E1
:021DCC00D4261B
:021DCE001627D6
:021DD000EB2600
:021DD2004727A1
:021DD4008F2757
:021DD6003127B3
:021DD800722770
:021DDA00B3262E
:021DDC001B27C3
:021DDE00F226EB
:021DE000422798
:021DE2001527C3
:021DE400F126E6
:021DE60078275C
:021DE8001827BA
:021DEA0061276F
:021DEC000C27C2
:021DEE001027BC
:021DF000DF26EC
:021DF200DB26EE
:021DF4007D2749
:021DF60025279F
:021DF80058276A
:021DFA00F126D0
:021DFC00492775
:021DFE00EC26D1
:021E0000E426D6
:021E02008F2728
:021E040016279F
:021E060046276D
:021E080026278B
:021E0A0054275B
:021E0C000127AC
:021E0E003B2770
:021E1000192790
:021E1200552752
:021E1400332772
:021E1600D026D4
:021E1800792728
:021E1A000E2791
:021E1C0022277B
:021E1E008F270C
:021E2000532746
:021E220019277E
:021E2400E226B4
:021E2600BA26DA
:021E2800DF26B3
:021E2A0063272C
:021E2C007B2712
:021E2E00732718
:021E3000592730
:021E3200BA26CE
:021E3400A926DD
:021E3600D326B1
:021E3800612720
:021E3A004F2730
:021E3C0060271D
:021E3E00B127CA
:021E4000B326C7
:021E4200FA267E
:021E4400BA26BC
:021E460004276F
:021E480007276A
:021E4A0034273B
:021E4C009027DD
:021E4E00A027CB
:021E5000672702
:021E5200EA267E
:021E540006275F
:021E5600BD26A7
:021E5800D3268F
:021E5A006127FE
:021E5C002C2731
:021E5E009727C4
:021E6000C0269A
:021E6200352722
:021E64002B272A
:021E6600D6267E
:021E68000E2743
:021E6A00EE2662
:021E6C009F27AE
:021E6E00E62666
:021E70007C27CD
:021E72005C27EB
:021E74006726DF
:021E76006327E0
:021E78006326DF
:021E7A006B27D4
:021E7C00192724
:021E7E007D27BE
:021E8000312708
:021E8200EB264D
:021E84003927FC
:021E86005126E3
:021E88008D27A4
:021E8A004F27E0
:021E8C001B2712
:021E8E006127CA
:021E9000FB262F
:021E92008A269E
:021E94007727AE
:021E9600E9263B
:021E980097278A
:021E9A005F27C0
:021E9C00EC2632
:021E9E006327B8
:021EA0006726B3
:021EA2003F27D8
:021EA40006270F
:021EA6001927FA
:021EA800A82769
:021EAA00F92617
:021EAC005627B7
:021EAE00972675
:021EB0006C279D
:021EB20099266F
:021EB4004F27B6
:021EB600032700
:021EB800C3263F
:021EBA006E2791
:021EBC002027DD
:021EBE009E275D
:021EC0009C275D
:021EC2000F27E8
:021EC400EA260C
:021EC6007A267A
:021EC800EC2606
:021ECA00D5261B
:021ECC005E278F
:021ECE00D92712
:021ED0002027C9
:021ED2003F27A8
:021ED400E926FD
:021ED600F626EE
:021ED800C3261F
:021EDA0072276D
:021EDC002127BC
:021EDE004A2791
:021EE000762763
:021EE200B12627
:021EE400A02735
:021EE600A42630
:021EE8006D2764
:021EEA00F526DB
:021EEC0040278D
:021EEE005B2770
:021EF000A32627
:021EF200622765
:021EF400EE26D8
:021EF600FB26C9
:021EF80056276B
:021EFA00DA26E6
:021EFC0070274D
:021EFE001727A4
:021F00001527A3
:021F0200222794
:021F0400FF26B6
:021F06001C2796
:021F080026278A
:021F0A00192795
:021F0C00382774
:021F0E003E276C
:021F1000F126B8
:021F1200F526B2
:021F1400922712
:021F1600B726EC
:021F18002C2774
:021F1A005A2744
:021F1C001A2782
:021F1E00252775
:021F2000FA269F
:021F2200DC26BB
:021F240026276E
:021F260015277D
:021F280013277D
:021F2A00B227DC
:021F2C00CD26C0
:021F2E00842706
:021F3000DC26AD
:021F3200EE2699
:021F340046273E
:021F36007D2606
:021F3800A127DF
:021F3A00E4269B
:021F3C00592723
:021F3E004F272B
:021F4000F42685
:021F4200F9267E
:021F44004A272A
:021F4600CB26A8
:021F480031273F
:021F4A00EB2684
:021F4C0041272B
:021F4E00BD26AE
:021F50007227F6
:021F5200EA267D
:021F540017274D
:021F560013274F
:021F58003E2722
:021F5A00062758
:021F5C007727E5
:021F5E00162744
:021F60005C27FC
:021F6200CD268A
:021F6400FF2656
:021F6600F32660
:021F6800B82699
:021F6A007127DD
:021F6C004D27FF
:021F6E008B27BF
:021F7000102738
:021F7200462700
:021F7400B6268F
:021F7600C8267B
:021F7800E92658
:021F7A007727C7
